{
  "contractName": "Certifier",
  "abi": [
    {
      "constant": true,
      "inputs": [],
      "name": "last_completed_migration",
      "outputs": [
        {
          "name": "",
          "type": "uint256"
        }
      ],
      "payable": false,
      "stateMutability": "view",
      "type": "function"
    },
    {
      "constant": true,
      "inputs": [],
      "name": "owner",
      "outputs": [
        {
          "name": "",
          "type": "address"
        }
      ],
      "payable": false,
      "stateMutability": "view",
      "type": "function"
    },
    {
      "inputs": [],
      "payable": false,
      "stateMutability": "nonpayable",
      "type": "constructor"
    },
    {
      "constant": true,
      "inputs": [],
      "name": "isOwner",
      "outputs": [
        {
          "name": "",
          "type": "bool"
        }
      ],
      "payable": false,
      "stateMutability": "view",
      "type": "function"
    },
    {
      "constant": false,
      "inputs": [
        {
          "name": "_code",
          "type": "bytes32"
        },
        {
          "name": "_name",
          "type": "string"
        },
        {
          "name": "_cost",
          "type": "uint256"
        },
        {
          "name": "_duration",
          "type": "uint256"
        },
        {
          "name": "_threshold",
          "type": "uint256"
        },
        {
          "name": "_codes",
          "type": "bytes32[]"
        }
      ],
      "name": "addCourse",
      "outputs": [],
      "payable": false,
      "stateMutability": "nonpayable",
      "type": "function"
    },
    {
      "constant": true,
      "inputs": [
        {
          "name": "_code",
          "type": "bytes32"
        }
      ],
      "name": "getCourse",
      "outputs": [
        {
          "name": "",
          "type": "string"
        },
        {
          "name": "",
          "type": "uint256"
        },
        {
          "name": "",
          "type": "uint256"
        },
        {
          "name": "",
          "type": "uint256"
        },
        {
          "name": "",
          "type": "bytes32[]"
        }
      ],
      "payable": false,
      "stateMutability": "view",
      "type": "function"
    },
    {
      "constant": false,
      "inputs": [
        {
          "name": "_code",
          "type": "bytes32"
        },
        {
          "name": "_firstName",
          "type": "string"
        },
        {
          "name": "_lastName",
          "type": "string"
        },
        {
          "name": "_age",
          "type": "uint256"
        },
        {
          "name": "_email",
          "type": "string"
        }
      ],
      "name": "subscribe",
      "outputs": [],
      "payable": true,
      "stateMutability": "payable",
      "type": "function"
    }
  ],
  "bytecode": "0x608060405234801561001057600080fd5b50336000806101000a81548173ffffffffffffffffffffffffffffffffffffffff021916908373ffffffffffffffffffffffffffffffffffffffff160217905550610a39806100606000396000f300608060405260043610610078576000357c0100000000000000000000000000000000000000000000000000000000900463ffffffff168063445df0ac1461007d5780638da5cb5b146100a85780638f32d59b146100ff578063987b57b91461012e578063bd11bc5114610235578063fdf8aad314610335575b600080fd5b34801561008957600080fd5b5061009261040d565b6040518082815260200191505060405180910390f35b3480156100b457600080fd5b506100bd610413565b604051808273ffffffffffffffffffffffffffffffffffffffff1673ffffffffffffffffffffffffffffffffffffffff16815260200191505060405180910390f35b34801561010b57600080fd5b50610114610438565b604051808215151515815260200191505060405180910390f35b34801561013a57600080fd5b5061015d600480360381019080803560001916906020019092919050505061048f565b604051808060200186815260200185815260200184815260200180602001838103835288818151815260200191508051906020019080838360005b838110156101b3578082015181840152602081019050610198565b50505050905090810190601f1680156101e05780820380516001836020036101000a031916815260200191505b50838103825284818151815260200191508051906020019060200280838360005b8381101561021c578082015181840152602081019050610201565b5050505090500197505050505050505060405180910390f35b6103336004803603810190808035600019169060200190929190803590602001908201803590602001908080601f0160208091040260200160405190810160405280939291908181526020018383808284378201915050505050509192919290803590602001908201803590602001908080601f016020809104026020016040519081016040528093929190818152602001838380828437820191505050505050919291929080359060200190929190803590602001908201803590602001908080601f016020809104026020016040519081016040528093929190818152602001838380828437820191505050505050919291929050505061062f565b005b34801561034157600080fd5b5061040b6004803603810190808035600019169060200190929190803590602001908201803590602001908080601f0160208091040260200160405190810160405280939291908181526020018383808284378201915050505050509192919290803590602001909291908035906020019092919080359060200190929190803590602001908201803590602001908080602002602001604051908101604052809392919081815260200183836020028082843782019150505050505091929192905050506107ef565b005b60015481565b6000809054906101000a900473ffffffffffffffffffffffffffffffffffffffff1681565b60008060009054906101000a900473ffffffffffffffffffffffffffffffffffffffff1673ffffffffffffffffffffffffffffffffffffffff163373ffffffffffffffffffffffffffffffffffffffff1614905090565b60606000806000606060008060009054906101000a900473ffffffffffffffffffffffffffffffffffffffff1673ffffffffffffffffffffffffffffffffffffffff163373ffffffffffffffffffffffffffffffffffffffff161415156104f557600080fd5b60026000886000191660001916815260200190815260200160002090508060000181600101548260020154836003015484600401848054600181600116156101000203166002900480601f0160208091040260200160405190810160405280929190818152602001828054600181600116156101000203166002900480156105be5780601f10610593576101008083540402835291602001916105be565b820191906000526020600020905b8154815290600101906020018083116105a157829003601f168201915b505050505094508080548060200260200160405190810160405280929190818152602001828054801561061457602002820191906000526020600020905b815460001916815260200190600101908083116105fc575b50505050509050955095509550955095505091939590929450565b60006729a2241af62c0000341415156106b0576040517f08c379a00000000000000000000000000000000000000000000000000000000081526004018080602001828103825260168152602001807f596f75206861766520706179656420332065746865720000000000000000000081525060200191505060405180910390fd5b600260008760001916600019168152602001908152602001600020905060a06040519081016040528086815260200185815260200184815260200183815260200160006040519080825280602002602001820160405280156107215781602001602082028038833980820191505090505b508152508160050160003373ffffffffffffffffffffffffffffffffffffffff1673ffffffffffffffffffffffffffffffffffffffff16815260200190815260200160002060008201518160000190805190602001906107829291906108f0565b50602082015181600101908051906020019061079f9291906108f0565b506040820151816002015560608201518160030190805190602001906107c69291906108f0565b5060808201518160040190805190602001906107e3929190610970565b50905050505050505050565b6000809054906101000a900473ffffffffffffffffffffffffffffffffffffffff1673ffffffffffffffffffffffffffffffffffffffff163373ffffffffffffffffffffffffffffffffffffffff1614151561084a57600080fd5b60a0604051908101604052808681526020018581526020018481526020018381526020018281525060026000886000191660001916815260200190815260200160002060008201518160000190805190602001906108a99291906108f0565b5060208201518160010155604082015181600201556060820151816003015560808201518160040190805190602001906108e4929190610970565b50905050505050505050565b828054600181600116156101000203166002900490600052602060002090601f016020900481019282601f1061093157805160ff191683800117855561095f565b8280016001018555821561095f579182015b8281111561095e578251825591602001919060010190610943565b5b50905061096c91906109c3565b5090565b8280548282559060005260206000209081019282156109b2579160200282015b828111156109b1578251829060001916905591602001919060010190610990565b5b5090506109bf91906109e8565b5090565b6109e591905b808211156109e15760008160009055506001016109c9565b5090565b90565b610a0a91905b80821115610a065760008160009055506001016109ee565b5090565b905600a165627a7a72305820a6c98a7280d208aaa92028eee8335979e7753b6a7e84626b4e4226c2a09ce40f0029",
  "source": "pragma solidity ^0.4.23;\n\ncontract Certifier {\n\n    address public owner;\n    uint public last_completed_migration;\n\n    mapping(bytes32 => Course) courses;\n\n    struct Course { \n        string name;\n        uint cost; \n        uint duration; \n        uint threshold;\n        bytes32[] codes;\n        mapping(address => Student) students;\n    }\n\n    struct Student {\n        string firstName;\n        string lastName;\n        uint age;\n        string email;\n        bytes32[] codes; \n    }\n\n    constructor() public {\n        owner = msg.sender;\n    }\n\n    modifier restricted() {\n        require (msg.sender == owner); \n        _;\n    }\n\n    function isOwner() public view returns(bool) {\n        return msg.sender == owner;\n    }\n\n    function addCourse(bytes32 _code,  string _name,  uint _cost,  uint _duration, uint _threshold, bytes32[] _codes) public restricted {\n        courses[_code] = Course({\n            name: _name,\n            cost: _cost,\n            duration: _duration,\n            threshold: _threshold,\n            codes: _codes \n        });\n    }\n\n    function getCourse(bytes32 _code) public restricted view returns(string, uint, uint, uint, bytes32[]) {\n        Course storage course = courses[_code];\n        return(course.name, course.cost, course.duration, course.threshold, course.codes);\n    }\n\n    function subscribe(bytes32 _code, string _firstName, string _lastName, uint _age, string _email) public payable {\n        require(msg.value == 3 ether, \"You have payed 3 ether\");\n        Course storage course = courses[_code];\n        course.students[msg.sender] = Student({\n            firstName: _firstName,\n            lastName: _lastName,\n            age: _age,\n            email: _email,\n            codes: new bytes32[](0)\n        });\n    }\n}\n",
  "sourcePath": "/Users/HernanCote/Documents/Blockchain/certifier/contracts/Certifier.sol",
  "compiler": {
    "name": "solc",
    "version": "0.4.24+commit.e67f0147.Emscripten.clang"
  },
  "schemaVersion": "2.0.1",
  "updatedAt": "2018-10-13T14:13:50.809Z"
}