{
  "contractName": "Certifier",
  "abi": [
    {
      "constant": true,
      "inputs": [],
      "name": "last_completed_migration",
      "outputs": [
        {
          "name": "",
          "type": "uint256"
        }
      ],
      "payable": false,
      "stateMutability": "view",
      "type": "function"
    },
    {
      "constant": true,
      "inputs": [],
      "name": "owner",
      "outputs": [
        {
          "name": "",
          "type": "address"
        }
      ],
      "payable": false,
      "stateMutability": "view",
      "type": "function"
    },
    {
      "inputs": [],
      "payable": false,
      "stateMutability": "nonpayable",
      "type": "constructor"
    },
    {
      "constant": false,
      "inputs": [
        {
          "name": "_code",
          "type": "bytes32"
        },
        {
          "name": "_name",
          "type": "string"
        },
        {
          "name": "_cost",
          "type": "uint256"
        },
        {
          "name": "_duration",
          "type": "uint256"
        },
        {
          "name": "_threshold",
          "type": "uint256"
        },
        {
          "name": "_codes",
          "type": "bytes32[]"
        }
      ],
      "name": "addCourse",
      "outputs": [],
      "payable": false,
      "stateMutability": "nonpayable",
      "type": "function"
    },
    {
      "constant": true,
      "inputs": [
        {
          "name": "_code",
          "type": "bytes32"
        }
      ],
      "name": "getCourse",
      "outputs": [
        {
          "name": "",
          "type": "string"
        },
        {
          "name": "",
          "type": "uint256"
        },
        {
          "name": "",
          "type": "uint256"
        },
        {
          "name": "",
          "type": "uint256"
        },
        {
          "name": "",
          "type": "bytes32[]"
        }
      ],
      "payable": false,
      "stateMutability": "view",
      "type": "function"
    },
    {
      "constant": false,
      "inputs": [
        {
          "name": "_code",
          "type": "bytes32"
        },
        {
          "name": "_firstName",
          "type": "string"
        },
        {
          "name": "_lastName",
          "type": "string"
        },
        {
          "name": "_age",
          "type": "uint256"
        },
        {
          "name": "_email",
          "type": "string"
        }
      ],
      "name": "subscribe",
      "outputs": [],
      "payable": true,
      "stateMutability": "payable",
      "type": "function"
    }
  ],
  "bytecode": "0x608060405234801561001057600080fd5b50336000806101000a81548173ffffffffffffffffffffffffffffffffffffffff021916908373ffffffffffffffffffffffffffffffffffffffff1602179055506109a8806100606000396000f30060806040526004361061006d576000357c0100000000000000000000000000000000000000000000000000000000900463ffffffff168063445df0ac146100725780638da5cb5b1461009d578063987b57b9146100f4578063bd11bc51146101fb578063fdf8aad3146102fb575b600080fd5b34801561007e57600080fd5b506100876103d3565b6040518082815260200191505060405180910390f35b3480156100a957600080fd5b506100b26103d9565b604051808273ffffffffffffffffffffffffffffffffffffffff1673ffffffffffffffffffffffffffffffffffffffff16815260200191505060405180910390f35b34801561010057600080fd5b5061012360048036038101908080356000191690602001909291905050506103fe565b604051808060200186815260200185815260200184815260200180602001838103835288818151815260200191508051906020019080838360005b8381101561017957808201518184015260208101905061015e565b50505050905090810190601f1680156101a65780820380516001836020036101000a031916815260200191505b50838103825284818151815260200191508051906020019060200280838360005b838110156101e25780820151818401526020810190506101c7565b5050505090500197505050505050505060405180910390f35b6102f96004803603810190808035600019169060200190929190803590602001908201803590602001908080601f0160208091040260200160405190810160405280939291908181526020018383808284378201915050505050509192919290803590602001908201803590602001908080601f016020809104026020016040519081016040528093929190818152602001838380828437820191505050505050919291929080359060200190929190803590602001908201803590602001908080601f016020809104026020016040519081016040528093929190818152602001838380828437820191505050505050919291929050505061059e565b005b34801561030757600080fd5b506103d16004803603810190808035600019169060200190929190803590602001908201803590602001908080601f01602080910402602001604051908101604052809392919081815260200183838082843782019150505050505091929192908035906020019092919080359060200190929190803590602001909291908035906020019082018035906020019080806020026020016040519081016040528093929190818152602001838360200280828437820191505050505050919291929050505061075e565b005b60015481565b6000809054906101000a900473ffffffffffffffffffffffffffffffffffffffff1681565b60606000806000606060008060009054906101000a900473ffffffffffffffffffffffffffffffffffffffff1673ffffffffffffffffffffffffffffffffffffffff163373ffffffffffffffffffffffffffffffffffffffff1614151561046457600080fd5b60026000886000191660001916815260200190815260200160002090508060000181600101548260020154836003015484600401848054600181600116156101000203166002900480601f01602080910402602001604051908101604052809291908181526020018280546001816001161561010002031660029004801561052d5780601f106105025761010080835404028352916020019161052d565b820191906000526020600020905b81548152906001019060200180831161051057829003601f168201915b505050505094508080548060200260200160405190810160405280929190818152602001828054801561058357602002820191906000526020600020905b8154600019168152602001906001019080831161056b575b50505050509050955095509550955095505091939590929450565b60006729a2241af62c00003414151561061f576040517f08c379a00000000000000000000000000000000000000000000000000000000081526004018080602001828103825260168152602001807f596f75206861766520706179656420332065746865720000000000000000000081525060200191505060405180910390fd5b600260008760001916600019168152602001908152602001600020905060a06040519081016040528086815260200185815260200184815260200183815260200160006040519080825280602002602001820160405280156106905781602001602082028038833980820191505090505b508152508160050160003373ffffffffffffffffffffffffffffffffffffffff1673ffffffffffffffffffffffffffffffffffffffff16815260200190815260200160002060008201518160000190805190602001906106f192919061085f565b50602082015181600101908051906020019061070e92919061085f565b5060408201518160020155606082015181600301908051906020019061073592919061085f565b5060808201518160040190805190602001906107529291906108df565b50905050505050505050565b6000809054906101000a900473ffffffffffffffffffffffffffffffffffffffff1673ffffffffffffffffffffffffffffffffffffffff163373ffffffffffffffffffffffffffffffffffffffff161415156107b957600080fd5b60a06040519081016040528086815260200185815260200184815260200183815260200182815250600260008860001916600019168152602001908152602001600020600082015181600001908051906020019061081892919061085f565b5060208201518160010155604082015181600201556060820151816003015560808201518160040190805190602001906108539291906108df565b50905050505050505050565b828054600181600116156101000203166002900490600052602060002090601f016020900481019282601f106108a057805160ff19168380011785556108ce565b828001600101855582156108ce579182015b828111156108cd5782518255916020019190600101906108b2565b5b5090506108db9190610932565b5090565b828054828255906000526020600020908101928215610921579160200282015b828111156109205782518290600019169055916020019190600101906108ff565b5b50905061092e9190610957565b5090565b61095491905b80821115610950576000816000905550600101610938565b5090565b90565b61097991905b8082111561097557600081600090555060010161095d565b5090565b905600a165627a7a72305820a7c5413c39f2a8ff8b6a90259a98d6e8bdb31ecc6d70a64052fda018d076e3c80029",
  "source": "pragma solidity ^0.4.23;\r\n\r\ncontract Certifier {\r\n\r\n    address public owner;\r\n    uint public last_completed_migration;\r\n\r\n    mapping(bytes32 => Course) courses;\r\n\r\n    struct Course { \r\n        string name;\r\n        uint cost; \r\n        uint duration; \r\n        uint threshold;\r\n        bytes32[] codes;\r\n        mapping(address => Student) students;\r\n    }\r\n\r\n    struct Student {\r\n        string firstName;\r\n        string lastName;\r\n        uint age;\r\n        string email;\r\n        bytes32[] codes; \r\n    }\r\n\r\n    constructor() public {\r\n        owner = msg.sender;\r\n    }\r\n\r\n    modifier restricted() {\r\n        require (msg.sender == owner); \r\n        _;\r\n    }\r\n\r\n    function addCourse(bytes32 _code,  string _name,  uint _cost,  uint _duration, uint _threshold, bytes32[] _codes) public restricted {\r\n        courses[_code] = Course({\r\n            name: _name,\r\n            cost: _cost,\r\n            duration: _duration,\r\n            threshold: _threshold,\r\n            codes: _codes \r\n        });\r\n    }\r\n\r\n    function getCourse(bytes32 _code) public restricted view returns(string, uint, uint, uint, bytes32[]) {\r\n        Course storage course = courses[_code];\r\n        return(course.name, course.cost, course.duration, course.threshold, course.codes);\r\n    }\r\n\r\n    function subscribe(bytes32 _code, string _firstName, string _lastName, uint _age, string _email) public payable {\r\n        require(msg.value == 3 ether, \"You have payed 3 ether\");\r\n        Course storage course = courses[_code];\r\n        course.students[msg.sender] = Student({\r\n            firstName: _firstName,\r\n            lastName: _lastName,\r\n            age: _age,\r\n            email: _email,\r\n            codes: new bytes32[](0)\r\n        });\r\n    }\r\n}\r\n",
  "sourcePath": "C:\\dev\\solidity\\certifier\\contracts\\Certifier.sol",
  "compiler": {
    "name": "solc",
    "version": "0.4.24+commit.e67f0147.Emscripten.clang"
  },
  "schemaVersion": "2.0.1",
  "updatedAt": "2018-10-12T23:23:48.511Z"
}